{
  "_format": "hh-sol-artifact-1",
  "contractName": "EnergyMarket",
  "sourceName": "contracts/contracts/EnergyMarket.sol",
  "abi": [
    {
      "inputs": [],
      "name": "getAllListings",
      "outputs": [
        {
          "components": [
            {
              "internalType": "uint256",
              "name": "id",
              "type": "uint256"
            },
            {
              "internalType": "address",
              "name": "seller",
              "type": "address"
            },
            {
              "internalType": "uint256",
              "name": "amount",
              "type": "uint256"
            },
            {
              "internalType": "uint256",
              "name": "pricePerUnit",
              "type": "uint256"
            },
            {
              "internalType": "string",
              "name": "energyType",
              "type": "string"
            },
            {
              "internalType": "string",
              "name": "location",
              "type": "string"
            },
            {
              "internalType": "uint256",
              "name": "timestamp",
              "type": "uint256"
            }
          ],
          "internalType": "struct EnergyMarket.Listing[]",
          "name": "",
          "type": "tuple[]"
        }
      ],
      "stateMutability": "view",
      "type": "function"
    },
    {
      "inputs": [
        {
          "internalType": "uint256",
          "name": "amount",
          "type": "uint256"
        },
        {
          "internalType": "uint256",
          "name": "pricePerUnit",
          "type": "uint256"
        },
        {
          "internalType": "string",
          "name": "energyType",
          "type": "string"
        },
        {
          "internalType": "string",
          "name": "location",
          "type": "string"
        }
      ],
      "name": "listEnergy",
      "outputs": [],
      "stateMutability": "nonpayable",
      "type": "function"
    },
    {
      "inputs": [
        {
          "internalType": "uint256",
          "name": "",
          "type": "uint256"
        }
      ],
      "name": "listings",
      "outputs": [
        {
          "internalType": "uint256",
          "name": "id",
          "type": "uint256"
        },
        {
          "internalType": "address",
          "name": "seller",
          "type": "address"
        },
        {
          "internalType": "uint256",
          "name": "amount",
          "type": "uint256"
        },
        {
          "internalType": "uint256",
          "name": "pricePerUnit",
          "type": "uint256"
        },
        {
          "internalType": "string",
          "name": "energyType",
          "type": "string"
        },
        {
          "internalType": "string",
          "name": "location",
          "type": "string"
        },
        {
          "internalType": "uint256",
          "name": "timestamp",
          "type": "uint256"
        }
      ],
      "stateMutability": "view",
      "type": "function"
    }
  ],
  "bytecode": "0x6080604052348015600f57600080fd5b50610e008061001f6000396000f3fe608060405234801561001057600080fd5b50600436106100415760003560e01c80637e1b8d7514610046578063ae73ccec14610062578063de74e57b14610080575b600080fd5b610060600480360381019061005b91906106e5565b6100b6565b005b61006a6101d2565b60405161007791906109b8565b60405180910390f35b61009a600480360381019061009591906109da565b6103d3565b6040516100ad9796959493929190610a6f565b60405180910390f35b60006040518060e0016040528060008054905081526020013373ffffffffffffffffffffffffffffffffffffffff1681526020018681526020018581526020018481526020018381526020014281525090806001815401808255809150506001900390600052602060002090600702016000909190919091506000820151816000015560208201518160010160006101000a81548173ffffffffffffffffffffffffffffffffffffffff021916908373ffffffffffffffffffffffffffffffffffffffff160217905550604082015181600201556060820151816003015560808201518160040190816101a99190610cf8565b5060a08201518160050190816101bf9190610cf8565b5060c08201518160060155505050505050565b60606000805480602002602001604051908101604052809291908181526020016000905b828210156103ca57838290600052602060002090600702016040518060e0016040529081600082015481526020016001820160009054906101000a900473ffffffffffffffffffffffffffffffffffffffff1673ffffffffffffffffffffffffffffffffffffffff1673ffffffffffffffffffffffffffffffffffffffff168152602001600282015481526020016003820154815260200160048201805461029d90610b1b565b80601f01602080910402602001604051908101604052809291908181526020018280546102c990610b1b565b80156103165780601f106102eb57610100808354040283529160200191610316565b820191906000526020600020905b8154815290600101906020018083116102f957829003601f168201915b5050505050815260200160058201805461032f90610b1b565b80601f016020809104026020016040519081016040528092919081815260200182805461035b90610b1b565b80156103a85780601f1061037d576101008083540402835291602001916103a8565b820191906000526020600020905b81548152906001019060200180831161038b57829003601f168201915b50505050508152602001600682015481525050815260200190600101906101f6565b50505050905090565b600081815481106103e357600080fd5b90600052602060002090600702016000915090508060000154908060010160009054906101000a900473ffffffffffffffffffffffffffffffffffffffff169080600201549080600301549080600401805461043e90610b1b565b80601f016020809104026020016040519081016040528092919081815260200182805461046a90610b1b565b80156104b75780601f1061048c576101008083540402835291602001916104b7565b820191906000526020600020905b81548152906001019060200180831161049a57829003601f168201915b5050505050908060050180546104cc90610b1b565b80601f01602080910402602001604051908101604052809291908181526020018280546104f890610b1b565b80156105455780601f1061051a57610100808354040283529160200191610545565b820191906000526020600020905b81548152906001019060200180831161052857829003601f168201915b5050505050908060060154905087565b6000604051905090565b600080fd5b600080fd5b6000819050919050565b61057c81610569565b811461058757600080fd5b50565b60008135905061059981610573565b92915050565b600080fd5b600080fd5b6000601f19601f8301169050919050565b7f4e487b7100000000000000000000000000000000000000000000000000000000600052604160045260246000fd5b6105f2826105a9565b810181811067ffffffffffffffff82111715610611576106106105ba565b5b80604052505050565b6000610624610555565b905061063082826105e9565b919050565b600067ffffffffffffffff8211156106505761064f6105ba565b5b610659826105a9565b9050602081019050919050565b82818337600083830152505050565b600061068861068384610635565b61061a565b9050828152602081018484840111156106a4576106a36105a4565b5b6106af848285610666565b509392505050565b600082601f8301126106cc576106cb61059f565b5b81356106dc848260208601610675565b91505092915050565b600080600080608085870312156106ff576106fe61055f565b5b600061070d8782880161058a565b945050602061071e8782880161058a565b935050604085013567ffffffffffffffff81111561073f5761073e610564565b5b61074b878288016106b7565b925050606085013567ffffffffffffffff81111561076c5761076b610564565b5b610778878288016106b7565b91505092959194509250565b600081519050919050565b600082825260208201905092915050565b6000819050602082019050919050565b6107b981610569565b82525050565b600073ffffffffffffffffffffffffffffffffffffffff82169050919050565b60006107ea826107bf565b9050919050565b6107fa816107df565b82525050565b600081519050919050565b600082825260208201905092915050565b60005b8381101561083a57808201518184015260208101905061081f565b60008484015250505050565b600061085182610800565b61085b818561080b565b935061086b81856020860161081c565b610874816105a9565b840191505092915050565b600060e08301600083015161089760008601826107b0565b5060208301516108aa60208601826107f1565b5060408301516108bd60408601826107b0565b5060608301516108d060608601826107b0565b50608083015184820360808601526108e88282610846565b91505060a083015184820360a08601526109028282610846565b91505060c083015161091760c08601826107b0565b508091505092915050565b600061092e838361087f565b905092915050565b6000602082019050919050565b600061094e82610784565b610958818561078f565b93508360208202850161096a856107a0565b8060005b858110156109a657848403895281516109878582610922565b945061099283610936565b925060208a0199505060018101905061096e565b50829750879550505050505092915050565b600060208201905081810360008301526109d28184610943565b905092915050565b6000602082840312156109f0576109ef61055f565b5b60006109fe8482850161058a565b91505092915050565b610a1081610569565b82525050565b610a1f816107df565b82525050565b600082825260208201905092915050565b6000610a4182610800565b610a4b8185610a25565b9350610a5b81856020860161081c565b610a64816105a9565b840191505092915050565b600060e082019050610a84600083018a610a07565b610a916020830189610a16565b610a9e6040830188610a07565b610aab6060830187610a07565b8181036080830152610abd8186610a36565b905081810360a0830152610ad18185610a36565b9050610ae060c0830184610a07565b98975050505050505050565b7f4e487b7100000000000000000000000000000000000000000000000000000000600052602260045260246000fd5b60006002820490506001821680610b3357607f821691505b602082108103610b4657610b45610aec565b5b50919050565b60008190508160005260206000209050919050565b60006020601f8301049050919050565b600082821b905092915050565b600060088302610bae7fffffffffffffffffffffffffffffffffffffffffffffffffffffffffffffffff82610b71565b610bb88683610b71565b95508019841693508086168417925050509392505050565b6000819050919050565b6000610bf5610bf0610beb84610569565b610bd0565b610569565b9050919050565b6000819050919050565b610c0f83610bda565b610c23610c1b82610bfc565b848454610b7e565b825550505050565b600090565b610c38610c2b565b610c43818484610c06565b505050565b5b81811015610c6757610c5c600082610c30565b600181019050610c49565b5050565b601f821115610cac57610c7d81610b4c565b610c8684610b61565b81016020851015610c95578190505b610ca9610ca185610b61565b830182610c48565b50505b505050565b600082821c905092915050565b6000610ccf60001984600802610cb1565b1980831691505092915050565b6000610ce88383610cbe565b9150826002028217905092915050565b610d0182610800565b67ffffffffffffffff811115610d1a57610d196105ba565b5b610d248254610b1b565b610d2f828285610c6b565b600060209050601f831160018114610d625760008415610d50578287015190505b610d5a8582610cdc565b865550610dc2565b601f198416610d7086610b4c565b60005b82811015610d9857848901518255600182019150602085019450602081019050610d73565b86831015610db55784890151610db1601f891682610cbe565b8355505b6001600288020188555050505b50505050505056fea2646970667358221220f98592f1efa03c5f5d01e2c62c8255f588e7c29ae3ebdf41535a741535c5c33964736f6c634300081c0033",
  "linkReferences": {},
  "deployedLinkReferences": {}
}